:100000000C9434000C943E000C943E000C943E0082
:100010000C943E000C943E000C943E000C943E0068
:100020000C943E000C943E000C943E000C943E0058
:100030000C943E000C943E000C943E000C943E0048
:100040000C943E000C943E000C943E000C943E0038
:100050000C943E000C943E000C943E000C943E0028
:100060000C943E000C943E0011241FBECFEFD8E04C
:10007000DEBFCDBF0E944C000C945C000C940000CD
:10008000982F92959F708927982F969596958927F6
:10009000982F96958927089514B817B88FEF8AB9C5
:1000A00083B1309B05C0982F969589278BB9F8CFDF
:0C00B0000E9440008BB9F4CFF894FFCF01
:00000001FF
