S00F000071385F636F64652E7372656372
S11300000C9434000C943E000C943E000C943E007E
S11300100C943E000C943E000C943E000C943E0064
S11300200C943E000C943E000C943E000C943E0054
S11300300C943E000C943E000C943E000C943E0044
S11300400C943E000C943E000C943E000C943E0034
S11300500C943E000C943E000C943E000C943E0024
S11300600C943E000C943E0011241FBECFEFD8E048
S1130070DEBFCDBF0E9440000C94BD000C94000074
S113008014B817B88FEF8AB940E883B166B16F70BE
S113009021F029C02F5F3F4F02C021E030E0213022
S11300A0310571F44BB95FE38DE093E0515080402A
S11300B09040E1F700C0000086B18F7059F3E5CF9E
S11300C08BB186958BB95FE38DE093E0515080400E
S11300D09040E1F700C0000086B18F70B1F628307F
S11300E03105C4F2D2CF082E000C990B062E000C59
S11300F0770B0E9495006623B4F46BB92FE35DE09F
S113010083E0215050408040E1F700C000008BB1F3
S11301101BB89FE32DE053E0915020405040E1F79D
S113012000C00000B2CF6BB9B0CF97FB072E16F416
S1130130009407D077FD09D00E94A90007FC05D0E0
S11301403EF4909581959F4F0895709561957F4FEA
S11301500895AA1BBB1B51E107C0AA1FBB1FA6170A
S1130160B70710F0A61BB70B881F991F5A95A9F75C
S111017080959095BC01CD010895F894FFCFC1
S9030000FC
