S01000007131345F636F64652E7372656344
S11300000C9434000C943E000C943E000C943E007E
S11300100C943E000C943E000C943E000C943E0064
S11300200C943E000C943E000C943E000C943E0054
S11300300C943E000C943E000C943E000C943E0044
S11300400C943E000C943E000C943E000C943E0034
S11300500C943E005D0049004B004D004F005100E0
S1130060530055005700590011241FBECFE5D8E0B6
S1130070DEBFCDBF0E945F000C94AA000C94000068
S113008090E08A309105B8F4FC01E65DFF4F0C94D2
S1130090A40089EF089584EA089580EB089589E91E
S11300A0089582E9089582E8089588EF089580E824
S11300B0089580E9089580E4089580EC08951ABABB
S11300C017BA8FEF84BB81BBC0E0D0E019E089B3DD
S11300D08F708A3008F0812F26B32F702A3008F0F1
S11300E0212FB79B19C0CF5FCA3011F4DF5FC0E086
S11300F090E04D2F0D2E000C550B48175907ACF00E
S1130100822F90E02C2F0C2E000C330B82179307B8
S113011064F4C0E0D0E009C0C1503AF41D161CF0EC
S1130120D82FC22F02C0D150C9E08D2F0E944000A9
S113013085BB8C2F0E94400082BB8FE493EC019717
S1130140F1F700C00000C3CFEE0FFF1F0590F4913C
S10B0150E02D0994F894FFCF9F
S9030000FC
