:100000000C9434000C9446000C9472000C9446003E
:100010000C9446000C9446000C9446000C94460048
:100020000C9446000C9446000C9446000C94460038
:100030000C9446000C9446000C9446000C94460028
:100040000C9446000C9446000C9446000C94460018
:100050000C9446000C9446000C9446000C94460008
:100060000C9446000C94460011241FBECFEFD8E03C
:10007000DEBFCDBF21E0A0E0B1E001C01D92A23003
:10008000B207E1F70E9454000C9425010C94000083
:100090005D9808955C9808958BB180728BB908952E
:1000A0008BB180718BB9089587E087B914B887EF59
:1000B0008AB988E08093690082E08DBB78948FE0F4
:1000C00085B918B85B9A0E9450000E944C00FFCF7F
:1000D0000E9448000E944C0008950E944A000E941D
:1000E000500008951F920F920FB60F9211242F9374
:1000F0003F934F935F936F937F938F939F93AF93B0
:10010000BF93CF93DF93EF93FF938FEF8093010122
:1001100081E08093000133E096E0B9E0ABE025E0B8
:10012000F8E0E2E074E067E05AE041E0809100012D
:100130008130D1F498B983B18F708B3061F018F4AD
:10014000873031F048C08D3049F08E3051F043C0D7
:100150004093010140C0709301013DC060930101D3
:100160003AC05093010137C08230D1F428B983B12D
:100170008F708B3061F018F4873031F02CC08D30E7
:1001800049F08E3051F027C0E093010124C0209344
:10019000010121C0F09301011EC0109201011BC09A
:1001A0008330C9F438B983B18F708B3061F018F4A3
:1001B000873031F010C08D3049F08E3051F00BC0D7
:1001C0003093010108C09093010105C0B093010173
:1001D00002C0A0930101809100018F5F8093000114
:1001E00084300CF4A3CF8091010181110BC00E94D7
:1001F00068000E9468000E9468000E9468000E94D7
:1002000068000FC018166CF4C0E0D0E00E946D00CA
:10021000219680910101082E000C990BC817D9076F
:10022000ACF318B8FF91EF91DF91CF91BF91AF91EF
:100230009F918F917F916F915F914F913F912F91FE
:0E0240000F900FBE0F901F901895F894FFCFEF
:00000001FF
